{
  "contractName": "GeoSpatialData",
  "abi": [
    {
      "constant": true,
      "inputs": [],
      "name": "SpatialDataCount",
      "outputs": [
        {
          "internalType": "uint256",
          "name": "",
          "type": "uint256"
        }
      ],
      "payable": false,
      "stateMutability": "view",
      "type": "function"
    },
    {
      "constant": true,
      "inputs": [
        {
          "internalType": "uint256",
          "name": "",
          "type": "uint256"
        }
      ],
      "name": "geoDatas",
      "outputs": [
        {
          "internalType": "uint256",
          "name": "id",
          "type": "uint256"
        },
        {
          "internalType": "address",
          "name": "owner_address",
          "type": "address"
        },
        {
          "internalType": "string",
          "name": "data_name",
          "type": "string"
        },
        {
          "internalType": "string",
          "name": "data_year",
          "type": "string"
        },
        {
          "internalType": "string",
          "name": "data_description",
          "type": "string"
        },
        {
          "internalType": "string",
          "name": "data_img_url",
          "type": "string"
        },
        {
          "internalType": "string",
          "name": "data_category",
          "type": "string"
        },
        {
          "internalType": "string",
          "name": "data_published_date",
          "type": "string"
        }
      ],
      "payable": false,
      "stateMutability": "view",
      "type": "function"
    },
    {
      "constant": true,
      "inputs": [],
      "name": "getListingPrice",
      "outputs": [
        {
          "internalType": "uint256",
          "name": "",
          "type": "uint256"
        }
      ],
      "payable": false,
      "stateMutability": "view",
      "type": "function"
    },
    {
      "constant": false,
      "inputs": [
        {
          "internalType": "string",
          "name": "_data_name",
          "type": "string"
        },
        {
          "internalType": "address",
          "name": "_owner_address",
          "type": "address"
        },
        {
          "internalType": "string",
          "name": "_data_year",
          "type": "string"
        },
        {
          "internalType": "string",
          "name": "_data_description",
          "type": "string"
        },
        {
          "internalType": "string",
          "name": "_data_image_url",
          "type": "string"
        },
        {
          "internalType": "string",
          "name": "_data_published_date",
          "type": "string"
        },
        {
          "internalType": "string",
          "name": "_data_category",
          "type": "string"
        },
        {
          "internalType": "int256",
          "name": "num",
          "type": "int256"
        }
      ],
      "name": "createData",
      "outputs": [],
      "payable": false,
      "stateMutability": "nonpayable",
      "type": "function"
    },
    {
      "constant": true,
      "inputs": [],
      "name": "ReadAllData",
      "outputs": [
        {
          "components": [
            {
              "internalType": "uint256",
              "name": "id",
              "type": "uint256"
            },
            {
              "internalType": "address",
              "name": "owner_address",
              "type": "address"
            },
            {
              "internalType": "string",
              "name": "data_name",
              "type": "string"
            },
            {
              "internalType": "string",
              "name": "data_year",
              "type": "string"
            },
            {
              "internalType": "string",
              "name": "data_description",
              "type": "string"
            },
            {
              "internalType": "string",
              "name": "data_img_url",
              "type": "string"
            },
            {
              "internalType": "string",
              "name": "data_category",
              "type": "string"
            },
            {
              "internalType": "string",
              "name": "data_published_date",
              "type": "string"
            }
          ],
          "internalType": "struct GeoSpatialData.GeoData[]",
          "name": "",
          "type": "tuple[]"
        }
      ],
      "payable": false,
      "stateMutability": "view",
      "type": "function"
    }
  ],
  "bytecode": "0x6080604052600080556658d15e1762800060015534801561001f57600080fd5b506113688061002f6000396000f3fe608060405234801561001057600080fd5b50600436106100575760003560e01c806312e855851461005c5780631cee4b381461007a578063601fb8a21461009857806389d7d2c3146100b4578063d9ae5053146100d2575b600080fd5b610064610109565b60405161007191906110c5565b60405180910390f35b610082610113565b60405161008f91906110a3565b60405180910390f35b6100b260048036036100ad9190810190610d2e565b6105ef565b005b6100bc610790565b6040516100c991906110c5565b60405180910390f35b6100ec60048036036100e79190810190610e70565b610796565b6040516101009897969594939291906110e0565b60405180910390f35b6000600154905090565b6060600080549050600080905060608160405190808252806020026020018201604052801561015c57816020015b610149610b9b565b8152602001906001900390816101415790505b50905060008090505b600184018110156105e55760006003600083815260200190815260200160002090508060405180610100016040529081600082015481526020016001820160009054906101000a900473ffffffffffffffffffffffffffffffffffffffff1673ffffffffffffffffffffffffffffffffffffffff1673ffffffffffffffffffffffffffffffffffffffff168152602001600282018054600181600116156101000203166002900480601f01602080910402602001604051908101604052809291908181526020018280546001816001161561010002031660029004801561028d5780601f106102625761010080835404028352916020019161028d565b820191906000526020600020905b81548152906001019060200180831161027057829003601f168201915b50505050508152602001600382018054600181600116156101000203166002900480601f01602080910402602001604051908101604052809291908181526020018280546001816001161561010002031660029004801561032f5780601f106103045761010080835404028352916020019161032f565b820191906000526020600020905b81548152906001019060200180831161031257829003601f168201915b50505050508152602001600482018054600181600116156101000203166002900480601f0160208091040260200160405190810160405280929190818152602001828054600181600116156101000203166002900480156103d15780601f106103a6576101008083540402835291602001916103d1565b820191906000526020600020905b8154815290600101906020018083116103b457829003601f168201915b50505050508152602001600582018054600181600116156101000203166002900480601f0160208091040260200160405190810160405280929190818152602001828054600181600116156101000203166002900480156104735780601f1061044857610100808354040283529160200191610473565b820191906000526020600020905b81548152906001019060200180831161045657829003601f168201915b50505050508152602001600682018054600181600116156101000203166002900480601f0160208091040260200160405190810160405280929190818152602001828054600181600116156101000203166002900480156105155780601f106104ea57610100808354040283529160200191610515565b820191906000526020600020905b8154815290600101906020018083116104f857829003601f168201915b50505050508152602001600782018054600181600116156101000203166002900480601f0160208091040260200160405190810160405280929190818152602001828054600181600116156101000203166002900480156105b75780601f1061058c576101008083540402835291602001916105b7565b820191906000526020600020905b81548152906001019060200180831161059a57829003601f168201915b5050505050815250508383815181106105cc57fe5b6020026020010181905250508080600101915050610165565b5080935050505090565b600080815480929190600101919050555060008054905060026040518061010001604052808381526020018a73ffffffffffffffffffffffffffffffffffffffff1681526020018b815260200189815260200188815260200187815260200185815260200186815250908060018154018082558091505090600182039060005260206000209060080201600090919290919091506000820151816000015560208201518160010160006101000a81548173ffffffffffffffffffffffffffffffffffffffff021916908373ffffffffffffffffffffffffffffffffffffffff16021790555060408201518160020190805190602001906106f0929190610bf6565b50606082015181600301908051906020019061070d929190610bf6565b50608082015181600401908051906020019061072a929190610bf6565b5060a0820151816005019080519060200190610747929190610bf6565b5060c0820151816006019080519060200190610764929190610bf6565b5060e0820151816007019080519060200190610781929190610bf6565b50505050505050505050505050565b60005481565b600281815481106107a357fe5b90600052602060002090600802016000915090508060000154908060010160009054906101000a900473ffffffffffffffffffffffffffffffffffffffff1690806002018054600181600116156101000203166002900480601f01602080910402602001604051908101604052809291908181526020018280546001816001161561010002031660029004801561087b5780601f106108505761010080835404028352916020019161087b565b820191906000526020600020905b81548152906001019060200180831161085e57829003601f168201915b505050505090806003018054600181600116156101000203166002900480601f0160208091040260200160405190810160405280929190818152602001828054600181600116156101000203166002900480156109195780601f106108ee57610100808354040283529160200191610919565b820191906000526020600020905b8154815290600101906020018083116108fc57829003601f168201915b505050505090806004018054600181600116156101000203166002900480601f0160208091040260200160405190810160405280929190818152602001828054600181600116156101000203166002900480156109b75780601f1061098c576101008083540402835291602001916109b7565b820191906000526020600020905b81548152906001019060200180831161099a57829003601f168201915b505050505090806005018054600181600116156101000203166002900480601f016020809104026020016040519081016040528092919081815260200182805460018160011615610100020316600290048015610a555780601f10610a2a57610100808354040283529160200191610a55565b820191906000526020600020905b815481529060010190602001808311610a3857829003601f168201915b505050505090806006018054600181600116156101000203166002900480601f016020809104026020016040519081016040528092919081815260200182805460018160011615610100020316600290048015610af35780601f10610ac857610100808354040283529160200191610af3565b820191906000526020600020905b815481529060010190602001808311610ad657829003601f168201915b505050505090806007018054600181600116156101000203166002900480601f016020809104026020016040519081016040528092919081815260200182805460018160011615610100020316600290048015610b915780601f10610b6657610100808354040283529160200191610b91565b820191906000526020600020905b815481529060010190602001808311610b7457829003601f168201915b5050505050905088565b60405180610100016040528060008152602001600073ffffffffffffffffffffffffffffffffffffffff1681526020016060815260200160608152602001606081526020016060815260200160608152602001606081525090565b828054600181600116156101000203166002900490600052602060002090601f016020900481019282601f10610c3757805160ff1916838001178555610c65565b82800160010185558215610c65579182015b82811115610c64578251825591602001919060010190610c49565b5b509050610c729190610c76565b5090565b610c9891905b80821115610c94576000816000905550600101610c7c565b5090565b90565b600081359050610caa816112e0565b92915050565b600081359050610cbf816112f7565b92915050565b600082601f830112610cd657600080fd5b8135610ce9610ce4826111b5565b611188565b91508082526020830160208301858383011115610d0557600080fd5b610d1083828461128d565b50505092915050565b600081359050610d288161130e565b92915050565b600080600080600080600080610100898b031215610d4b57600080fd5b600089013567ffffffffffffffff811115610d6557600080fd5b610d718b828c01610cc5565b9850506020610d828b828c01610c9b565b975050604089013567ffffffffffffffff811115610d9f57600080fd5b610dab8b828c01610cc5565b965050606089013567ffffffffffffffff811115610dc857600080fd5b610dd48b828c01610cc5565b955050608089013567ffffffffffffffff811115610df157600080fd5b610dfd8b828c01610cc5565b94505060a089013567ffffffffffffffff811115610e1a57600080fd5b610e268b828c01610cc5565b93505060c089013567ffffffffffffffff811115610e4357600080fd5b610e4f8b828c01610cc5565b92505060e0610e608b828c01610cb0565b9150509295985092959890939650565b600060208284031215610e8257600080fd5b6000610e9084828501610d19565b91505092915050565b6000610ea58383610fb2565b905092915050565b610eb681611247565b82525050565b610ec581611247565b82525050565b6000610ed6826111f1565b610ee08185611214565b935083602082028501610ef2856111e1565b8060005b85811015610f2e5784840389528151610f0f8582610e99565b9450610f1a83611207565b925060208a01995050600181019050610ef6565b50829750879550505050505092915050565b6000610f4b826111fc565b610f558185611225565b9350610f6581856020860161129c565b610f6e816112cf565b840191505092915050565b6000610f84826111fc565b610f8e8185611236565b9350610f9e81856020860161129c565b610fa7816112cf565b840191505092915050565b600061010083016000830151610fcb6000860182611085565b506020830151610fde6020860182610ead565b5060408301518482036040860152610ff68282610f40565b915050606083015184820360608601526110108282610f40565b9150506080830151848203608086015261102a8282610f40565b91505060a083015184820360a08601526110448282610f40565b91505060c083015184820360c086015261105e8282610f40565b91505060e083015184820360e08601526110788282610f40565b9150508091505092915050565b61108e81611283565b82525050565b61109d81611283565b82525050565b600060208201905081810360008301526110bd8184610ecb565b905092915050565b60006020820190506110da6000830184611094565b92915050565b6000610100820190506110f6600083018b611094565b611103602083018a610ebc565b81810360408301526111158189610f79565b905081810360608301526111298188610f79565b9050818103608083015261113d8187610f79565b905081810360a08301526111518186610f79565b905081810360c08301526111658185610f79565b905081810360e08301526111798184610f79565b90509998505050505050505050565b6000604051905081810181811067ffffffffffffffff821117156111ab57600080fd5b8060405250919050565b600067ffffffffffffffff8211156111cc57600080fd5b601f19601f8301169050602081019050919050565b6000819050602082019050919050565b600081519050919050565b600081519050919050565b6000602082019050919050565b600082825260208201905092915050565b600082825260208201905092915050565b600082825260208201905092915050565b600061125282611263565b9050919050565b6000819050919050565b600073ffffffffffffffffffffffffffffffffffffffff82169050919050565b6000819050919050565b82818337600083830152505050565b60005b838110156112ba57808201518184015260208101905061129f565b838111156112c9576000848401525b50505050565b6000601f19601f8301169050919050565b6112e981611247565b81146112f457600080fd5b50565b61130081611259565b811461130b57600080fd5b50565b61131781611283565b811461132257600080fd5b5056fea365627a7a7231582007d88384c41d6c381d864c34f410e1ea11a02fe0607112eb138bf40fb0bca20a6c6578706572696d656e74616cf564736f6c63430005100040",
  "source": "// SPDX-License-Identifier: MIT\r\npragma solidity >=0.4.22 <0.9.0;\r\npragma experimental ABIEncoderV2;\r\n\r\n\r\ncontract GeoSpatialData{\r\n\r\n    uint public SpatialDataCount = 0;\r\n    uint listingPrice = 0.025 ether;\r\n\r\n    function getListingPrice() public view returns (uint256){\r\n        return listingPrice;\r\n    }\r\n    \r\n    struct GeoData{\r\n        uint id;\r\n        address owner_address;\r\n        string data_name;\r\n        string data_year;\r\n        string data_description;\r\n        string data_img_url;\r\n        \r\n        string data_category;\r\n        string data_published_date;\r\n    }\r\n\r\n    GeoData[] public geoDatas;\r\n    \r\n\r\n    mapping(uint => GeoData) idIndexMap;\r\n    // write function\r\n    function createData(string memory _data_name,address _owner_address,string memory _data_year,string memory  _data_description,string memory _data_image_url,string memory _data_published_date,string memory _data_category,int num ) public{\r\n        SpatialDataCount++;\r\n        \r\n        uint used_id = SpatialDataCount;\r\n        geoDatas.push(GeoData({id: used_id,owner_address:_owner_address,data_name:_data_name,data_year:_data_year,data_description:_data_description,data_img_url:_data_image_url,data_category:_data_category,data_published_date:_data_published_date}));\r\n        \r\n    }\r\n\r\n    \r\n        // function getGeoData(uint256 id) public view returns (GeoData memory) {\r\n        // uint256 index = idIndexMap[id];\r\n        // return geoDatas[index];\r\n        // }\r\n\r\n        function ReadAllData() public view returns (GeoData[] memory){\r\n            uint number = SpatialDataCount;\r\n            uint itemCount=0;\r\n            GeoData[] memory items = new GeoData[](itemCount);\r\n\r\n            for(uint i=0;i<number+1;i++){\r\n                GeoData storage currentItem = idIndexMap[i];\r\n                items[i]=currentItem;\r\n            }\r\n\r\n            return items;\r\n        }\r\n\r\n\r\n}\r\n\r\n",
  "sourcePath": "C:\\Users\\saran\\OneDrive\\Desktop\\blockchain\\sarngPedia\\contracts\\GeoSpatialData.sol",
  "compiler": {
    "name": "solc",
    "version": "0.5.16+commit.9c3226ce.Emscripten.clang"
  },
  "schemaVersion": "3.4.6",
  "updatedAt": "2022-03-15T01:09:40.414Z",
  "networkType": "ethereum",
  "devdoc": {
    "methods": {}
  },
  "userdoc": {
    "methods": {}
  }
}